:020000040000FA
:10000000021305022003FFFFFFFFFF02200BFFFF8B
:10001000FFFFFF020E67FFFFFFFFFF02201BFFFF36
:10002000FFFFFF022023FFFFFFFFFF02202BFFFF48
:10003000FFFFFF022033FFFFFFFFFF020EAAFFFFBB
:10004000FFFFFF022043FFFFFFFFFF02204BFFFFE8
:10005000FFFFFF022053FFFFFFFFFF02205BFFFFB8
:10006000FFFFFF022063FFFFFFFFFF02206BFFFF88
:10007000FFFFFF022073FFFFFFFFFF02207BFFFF58
:10008000FFFFFF022083FFFFFFFFFF02208BFFFF28
:10009000FFFF70DFFFFF040000000002000000C847
:1000A0000300030369A5020269A501000000000026
:1000B00004003273000074F812104C900393E06057
:1000C0001590030274FEF0900304744DF0A37405C0
:1000D000F07A0112068C7F0102116974F712104C3C
:1000E00074FF1212717E00801F851882851983E0CB
:1000F00064FE70069003877401F085188285198369
:10010000E0F8900384E068F07C017D00AA18AB1948
:10011000120E228B09EA450970030201F385188249
:10012000851983E064EF70027E07E0C0E0900387EA
:10013000E0FA900385E0F8EA28F8E43400F9740264
:1001400028F582740339F583D0E0F0900387E060EE
:100150009814600E14602C14603C14605214606893
:100160008098900384E4F0851882851983E09003D9
:1001700086F0C394809003874004E40200F974027F
:100180000200F9851882851983E0900382F09003BC
:100190008774030200F9851882851983E090038330
:1001A000F0900386E0601990038774040200F990D0
:1001B0000385E004F0F8900386E06860030200FA2B
:1001C00090038774050200F9900385E4F09003879B
:1001D000F0900384E0F8851882851983E068600355
:1001E0000200FA900382E0644D60030200FA1203F9
:1001F000288002EEF9740112123D7F020211697427
:10020000F712104C74FB121271EAFEEBFF75080432
:1002100075090078081212D574021212EE7A907BDA
:10022000007904120ECB740212123D12067E1213D4
:100230003FE0687003A3E069701285188285198316
:10024000E0F47003A3E0F4600302030874041212E4
:10025000E61206E48A088B09A808A9097402121399
:100260003FE8F0A3E9F0740412133FE0600879015D
:100270001200B6020321851882851983E068700395
:10028000A3E0697076851882851983E0F47003A372
:10029000E0F47019740212133F7410F0A37420F08C
:1002A0008518828519837410F0A37420F0750801F5
:1002B00075090078081212D574021212EE7A247BA6
:1002C00008120F4F740212123D75080478081212BA
:1002D000D574021212EE7A907B007904120ECB7460
:1002E0000212123D12067E12133FE0687003A3E073
:1002F000697004790280067904800279031200B6DD
:100300008E828F83741E80058E828F83E4F01206A6
:100310007E12133FE0687003A3E0697004790180E6
:1003200002790074050201F774E912104C74F81296
:100330001271900307E0FA900306E0F9FEEAFCE48C
:10034000CCFDEE2CED3408FF751001750F00750E15
:10035000068E088F097402780812129CC39508FC57
:10036000E49509FD74022CF51474033DF515E514AC
:100370002497F516E5153420F517EE2410F508E45A
:100380003FF509EEF50CEF5401F50D8E128F137445
:100390000978121212F685120A900383E01460574E
:1003A00014700302046F1470030204E61460102436
:1003B000FE70030205A11470030206510206617566
:1003C0000E03794E120C619003071206747402F04A
:1003D000A374401206727408120672F0A3F0741827
:1003E000C3940704F510AA10A90F12068CA90E7465
:1003F0000812123D02083E750E04794E120C61EE91
:10040000450D7005A90A120FB5C3EE9425EF9408A7
:10041000503FC3E5089424E50994084034E51424CA
:1004200096F8E5153420F988828983E0701E8516D8
:1004300082851783E070159003887401F0888289A3
:100440008374A5F08516828517838004900388E461
:10045000F075081075090078081212D57C087D0324
:10046000EEFAEFFB120F4F740212123D0203E67513
:100470000E05C3E50A947995E04006750F01020365
:10048000E675104075110078101212D57C097D03B5
:100490007402780C12129CAA0CAB0DA90A120ECB96
:1004A000740212123D900307E0A3F0900306E0A34C
:1004B000F0751043C3EE9425EF940840030203E661
:1004C000C3E5089424E509940850030203E6900369
:1004D00088E070030203E6A816A91788828983E4DE
:1004E000F0A3F00203E675080475090078081212FB
:1004F000D574021212EE7A907B007904120ECB743E
:100500000212123D740212133FE0F8A3E0F98518BD
:1005100082851983E0687003A3E0698518828519D4
:1005200083700BE0F47003A3E0F470578009E0F4EB
:100530007003A3E0F4700D8518828519837410F0A0
:10054000A37420F012067E12133FE8F0A3E9F075C1
:10055000080178081212D574021212EE7A247B0870
:10056000120F4F740212123D75080478081212D54A
:1005700074021212EE7A907B007904120ECB740290
:1005800012123D12067E12133FE0687003A3E06969
:100590007006750E010203E6750E02750F07020361
:1005A000E6900391E06007640260030203E6EAFF5D
:1005B0007A01790012068CE060030206458003127E
:1005C0000D22120D2CE970F7740412133F12066607
:1005D000740412133F780812132385080C85090D43
:1005E000850A0E850B0F9005A2780C1212C27404B6
:1005F00012133F780C121314E5084509450A450B00
:1006000070CE8EC2E5C554E04FF5C5740412133F99
:10061000120666740412133F780812132385080C1F
:1006200085090D850A0E850B0F9005A2780C121214
:10063000C2740412133F780C121314E508450945DF
:100640000A450B70CE7A01790012068C79080203F4
:10065000EFE9900393F070030203E6750E090203BD
:10066000E679060203EFE4F0A37426F0A3E4F0A316
:10067000F022F0A3E4F0A3F0A3F0A3F0A3228518E6
:1006800082851983E0F8A3E0F974022274F812104D
:100690004CEAFE900305E0D2E7F0E9A3F0EE900308
:1006A00003F08E0874042AFE7C028004E062080CC9
:1006B000ECFA3395E0FB74022AF58274033BF58370
:1006C000EEF8C3EA98EB9400A2D265D03340DDE5A2
:1006D00008F074012A0C3395E0FD7A027B03120EB8
:1006E000520200D674E912104C7582007583FE1216
:1006F00012048A168B177514007515008A828B8375
:10070000E4F0900391E07006D2AAD2AF80046402B4
:10071000700579001200B6750C00750D20750E007D
:10072000750F00900391E0600464027015120D22B1
:100730001200DBE9F87409686003020814790012FA
:1007400000B675080075090278081212D5740212F5
:1007500012EE850C08850D09AA08E5095407FB85EA
:100760000E0A850F0B740B7808121258A908120E86
:10077000CB740212123D7E007F009005AAC0828ECB
:1007800010EFF5113395E0F512F513850C08850D82
:1007900009850E0A850F0B780879101212AF9005A3
:1007A000A678081212C2758305D08278081211E566
:1007B000501D851882851983E5822EF582E5833FD9
:1007C000F583E0F9AA14AB151208438A148B150EB1
:1007D000EE70010FC3EF940240A09005AE780C12AA
:1007E00012C29005B2780C1211E54003020723797A
:1007F00000AA14AB1512084379001208438B159018
:100800000391E07004C2AFC2AAEA451570277AA529
:100810007BA58021E870030207427406687003021A
:1008200007427407687003020742851682851783A2
:100830007401F080BA7582007583021212047F1071
:10084000021169C008C0097C088A088B09740F78F6
:10085000081212F6E508F8EA25E0FAEB33FBE9A204
:10086000E7500474014AFAE8A2E0500874216AFAD9
:1008700074106BFBE9C333F91CEC70CDD009D008C0
:100880002274F812104C78007900802274942EF5AE
:1008900082E43403F583E08A828B83F0900414129F
:1008A0000A014005900414E4F008E870010990047E
:1008B00014E0FEA3E06E6007C3E89CE99D40CDE82C
:1008C000FAE9FB7F0102116974F712104C90049849
:1008D000E0F509A3E0F508F8E509C398F895E0F913
:1008E000E508C39509E8500B120AE3701178007906
:1008F00000801B247F500109C39CE99D50EF7A00C2
:100900007B008041E004F0D2E908E8700109C3E807
:100910009CE99D502C8A828B83E0C0E0900499E092
:10092000FE74182EF582E43404F583D0E0120AD365
:1009300090049AE4F0900499E0C3947F40C6E48068
:10094000C5E8FAE9FB7F02021169C082C083C2E9EF
:10095000900498E0F8A3E0686017741828F582E422
:100960003404F583E0F5C1900498120AFA4002E4D9
:10097000F0020D4074F812104C7800790090051DBB
:10098000E07055A3E0705175F900C28FC284A28354
:1009900040FCA28F4004A28350F8AEF9C28FA2831C
:1009A0005004D2848032EEC0E0E0FE1209F6D0E0BE
:1009B000F090051E120AFA40D9E4F080D51209F62B
:1009C000E08A828B83F090051D120A014005900594
:1009D0001DE4F008E870010990051DE0FEA3E06E3B
:1009E0006007C3E89CE99D40D4E8497006E4F090B4
:1009F000051DF00208BF749D2EF582E43404F583D2
:100A000022E004120AD7C394802274F812104C908A
:100A100005A0E0FEF890059FE0FFEEC39FE0500DBB
:100A2000C398F895E0F9120AE270188012C398F89A
:100A300095E0F9E8247F500109C39CE99D4004EC4E
:100A40004D70077A007B00020AD08A828B83E0F522
:100A5000F9A3AA82AB83780179008008E004F0084A
:100A6000E8700109C3E89CE99D50278A828B83E0E6
:100A7000C0E09005A0E0FE741F2EF582E43405F579
:100A800083D0E0120AD39005A0E0C3947F40CDE468
:100A900080CCC28FA28340FCC284A28F4004A28378
:100AA00050F890059F120AEDE0F5F9C28F90059F6E
:100AB000E0FAA3E06A90059F7005120AED80051226
:100AC0000AFA4002E4F0A28350D0D284E8FAE9FBAB
:100AD0000208C3120AD722F08A828B83A3AA82ABB0
:100AE0008322E824FF18E934FFF9E84922E0FA7488
:100AF0001F2AF582E43405F58322E004F0C39480D4
:100B00002274FB121271C2009005CA7808121323D6
:100B10009005CA7401F0A3F0A37469F0A374A5F062
:100B20009005B678081212877004D20080159005DF
:100B3000BA78081212876008E59D54186410700393
:100B4000022000120C87A2005003020C04AA18AB6A
:100B5000191201FFE97003020C04851882851983BC
:100B6000E0C3943C500CE0F8743CC398FA95E0FB69
:100B700080047A007B00120D45E97003020C04909A
:100B80000391E06401700C75F800C2AB539AF7D280
:100B9000EA805E79071200B68003120D22120D2C36
:100BA000E970F7740112133FE4F0A37426F0A3E494
:100BB000F0A3F0740112133F780812132385080C78
:100BC00085090D850A0E850B0F9005A2780C12126F
:100BD000C2740112133F780C121314E5084509453D
:100BE0000A450B70CE758600C2AAC28B539AFBC20F
:100BF000E990000174CDF0022000C2AF75C9AB7559
:100C0000C95B80FE750800750900750A00750B0048
:100C1000900391E0701BD2AAD2AF79051200B6E022
:100C20007003120D221200DBE9F874096870098064
:100C3000E9794E120C6180ED74016870E2E0701782
:100C4000120D229005BE78081212C29005C27808D3
:100C50001211E550EBC2AAC2AF75C9AB75C95B8072
:100C6000FEC082C08378109005A1E0C3995015752D
:100C7000B60FE5B4A2E750FAE5BBC39940F118E816
:100C800070EDE9F0020D40C082C08353BEFBE59DCC
:100C9000A2E650FA0078F8790100120AE270FA75BB
:100CA000C6807480659E70FA43BE049062707408BA
:100CB000F0794A120C6190000174F5F07403F5D5D7
:100CC00075D489A2A0E433900391F0A2E05029D218
:100CD0008453F3F753F3EF53FDF743FD10538FF7AE
:100CE00053F7DF43FC2043F10253F5DF75F820434F
:100CF000F4F0D2FED2AB802853FF3F85FFFF53F1C3
:100D0000FE43F30C53F2F375868075C48090049B08
:100D1000E4F0A3F075C2D875C50B75C402438640D4
:100D2000801E800312094AA2E940F922C082C083D2
:100D3000900498E0F8A3E0686004790180027900EB
:100D4000D083D0822274F112104C74FF1212717E83
:100D500000900391E06401706CC28490039274016E
:100D6000F07508388E098E0A8E0B7C017D00AA185A
:100D7000AB19120E228B0DEA450D6018851882857D
:100D80001983E06410602DE064EF70088E088E090E
:100D90008E0A8E0B85080C85090D850A0E850B0FB2
:100DA0009005A278081212C2E50C450D450E450FBC
:100DB00070347E01900391E064017056D2849003F8
:100DC00092E4F08051D2AAD2AF8A088B09E4F50AE6
:100DD000F50B9005C6780C1213237808790C120FC6
:100DE000CC79061200B6900391E06003020D6A12FE
:100DF0000D221200DBE9F874096870077906120009
:100E0000B680917407686084E8608974066870A48D
:100E10008082C2AFC2AAEEF9740112123D7F0802AD
:100E20001169C082C083900391E07005120881802F
:100E30001E900392E06015A28F500BE5F98A828B19
:100E400083F07A0180027A007B0080031209740229
:100E50000D40C082C083900391E070051208C880E5
:100E600003120A0A020D40C0E074F21210B29000A0
:100E700001E064CD7005122013802AE064F570242F
:100E8000E5C1C28BC0E0900415E0F8749428F582A7
:100E9000E43403F583D0E0F0900415120AFA40051B
:100EA000E4F08001007F01021111C0E074F2121021
:100EB000B2900001E064CD700512203B800BE0642D
:100EC000F5700512094A80010080DA74F612104CA0
:100ED000890A740F550AF508750900740B78081211
:100EE000129CEA2400F8EB3480F9E82400E9350983
:100EF000F985C709A2AFE433F508C2AFE50AC454C7
:100F00000FFAE5C754F84AF5C7740A12133FE0FA1E
:100F1000A3E0FB801C88828983E08C828D83F0882B
:100F2000828983A3A882A9838C828D83A3AC82AD9E
:100F300083EAFEEBFFEE24FF1AEF34FFFBEE4F7067
:100F4000D48509C7E508A2E092AF7F030211697456
:100F5000F712104CED900389F0ECA3F0A37462F04B
:100F6000A37473F0A3E0541FF0740912133FE0F56B
:100F700008A3E0F509E508333354FC90038EF074C0
:100F80000678081212F6E50890038DF090038F742E
:100F900012F0A37442F075D1FE75D601EA90627129
:100FA000F0EBA3F0906270E0D2E1F0E0A2E740FB4A
:100FB0007F02021169C082C083E9C333906272F07C
:100FC000906270E0D2E0F0D083D08222080808EA74
:100FD000C0E0EBC0E086F0E7A4FA180986F0E7A4C9
:100FE0002AFA180986F0E7A42AFA180986F0E7A475
:100FF0002AFA1986F0E7A4FBE5F02AFA190886F028
:10100000E7A42BFBE5F03AFA190886F0E7A42BFBDE
:10101000E5F03AFA18180986F0E7A4C5F02BFBE4CE
:101020003AFA1908E7C5F0C6A426F6E5F03BFBE45A
:101030003AFA1886F0E7A4F6E5F00826F6E43B084D
:10104000F6E43A08F6D0E0FBD0E0FA222518C58293
:10105000C0E0E51934FFC583C0E0E518C3958224DC
:10106000F910AF0885831985821880088583198552
:101070008218D2AFCEF0A3E520F0A37808E608F0FE
:10108000A3DEFAEFF0A3E58124FBF8E608F0A3E67F
:1010900008F0A30808E608F0A3E608F0A3158115F8
:1010A00081D0E0FED0E0F815811581E8C0E0EEC007
:1010B000E022C0D02518C582C0E0E51934FFC58301
:1010C000C0E0E518C3958224F310AF088583198525
:1010D00082188008858319858218D2AFC8F0A3E9E9
:1010E000F0A3EAF0A3EBF0A37908E709F0A3D8FA9C
:1010F000ECF0A3EDF0A3EEF0A3EFF0A3D0E0F0A3AB
:10110000D0E0F0A3D0E0F0A3E520F0A3E5F0F0A359
:1011100022851983851882E0C0E0A3E0F9A3E0FAF4
:10112000A3E0FBA37808E0F608A3DFFAE0FCA3E065
:10113000FDA3E0FEA3E0FFA3E0C0E0A3E0C0E0A3C6
:10114000E0F5D0A3E0F520A3E0A3F5F010AF08850B
:1011500083198582188008858319858218D2AFD0BB
:1011600082D083D0E0F8D0E032851983851882E000
:10117000A3FEE0A3F5207808E0A3F608DFFAE0A3D9
:10118000FFE0A3C0E0E0A3C0E0E0A3C0E0E0A3C0B4
:10119000E010AF088582188583198008858218853C
:1011A0008319D2AFD083D08222E490030278A17950
:1011B000038002F0A3D8FCD9FA7AA27B0590008EB6
:1011C000782979018015E493A3AD82AE838A828B5E
:1011D00083F0A3AA82AB838D828E83D8E9D9E712EC
:1011E0000B01121349C008C3E096F50808A3E09666
:1011F000420808A3E096420808A3E096450870015B
:10120000D3D00822C5822518C582C583351910AFF1
:1012100007F5198582188007F519858218D2AFC5A0
:1012200083222518F58210AF08F518400C15198097
:1012300008F51840021519D2AF8519832200C0D0D5
:10124000251810AF08F518500C05198008F518502E
:10125000020519D2AFD0D0226016080808C6C31301
:10126000C618C613C618C613C618C613C6D5E0EAF4
:1012700022251810AF08F518400C15198008F5182C
:1012800040021519D2AF22E066701008A3E0667024
:101290000A08A3E066700408A3E0662270042260D6
:1012A0000D18C6C333C608C633C6D5E0F41822E607
:1012B00027F60809E637F60809E637F60809E6379B
:1012C000F622E026F608A3E036F608A3E036F60894
:1012D000A3E036F62274028000C0E0F40412122269
:1012E000D0E0121332222518FAE43519FB22251812
:1012F000FCE43519FD22600C08C6C313C618C613DA
:10130000C6D5E0F42275D00075813F7518027519B5
:10131000030211A9E6F008A3E6F008A3E6F008A38B
:10132000E6F022E0F608A3E0F608A3E0F608A3E062
:10133000F622CAC0E0E6F0A308DAFAD0E0FA2225E5
:1013400018F582E43519F5832200000080FBFFFFC9
:10135000FFFFFFFFFFFFFFFFFFFFFFFFFFFFFFFF9D
:10136000FFFFFFFFFFFFFFFFFFFFFFFFFFFFFFFF8D
:10137000FFFFFFFFFFFFFFFFFFFFFFFFFFFFFFFF7D
:10138000FFFFFFFFFFFFFFFFFFFFFFFFFFFFFFFF6D
:0A1FF600CA05094338860000000008
:020000040003F7
:01FFF000F020
:020000040000FA
:10200000022C6002221AFFFFFFFFFFFFFFFFFFFF0E
:10201000FFFFFFFFFFFFFFFFFFFFFFFFFFFFFFFFD0
:10202000FFFFFFFFFFFFFFFFFFFFFF0229ECFFFFA6
:10203000FFFFFFFFFFFFFFFFFFFFFFFFFFFFFFFFB0
:10204000FFFFFF0228DDFFFFFFFFFFFFFFFFFFFF96
:10205000FFFFFF022154FFFFFFFFFFFFFFFFFFFF16
:10206000FFFFFFFFFFFFFFFFFFFFFF022906FFFF4C
:10207000FFFFFFFFFFFFFFFFFFFFFFFFFFFFFFFF70
:10208000FFFFFF0221AB01FFFFFFFFFFFFFFFFFF8D
:10209000102010200100F0FF0700080000FFFF00E3
:1020A00000030400000F0100000300019651180016
:1020B000020000DB31000000003F315F32AB312312
:1020C00032000069310000000000000000000075CF
:1020D0003100000000000000000000813106FFFF19
:1020E000FF010400005C18000000E8030000FFFF8F
:1020F0002C19018813000003E80300006400640049
:10210000B801A0BB0D00A0BB0D0002020207040134
:102110000101051E02051E020A0A01010108090843
:102120000103B80B02803E0102FEFFE8030A05002E
:1021300001FFFF0A011401E00105030101FF0F1077
:10214000FEFF2A4E00000000604D00000000FF006E
:102150000000FF00C0E074F2122595A2AFE433F551
:1021600008D2AFAFA7AEA1EE5F54106006122EBD2D
:1021700075A1EFEE5F54086008122EC375A1F780B9
:1021800023EEA2E092F0EFA2E082F0501790619867
:10219000E0F890073BE0C398A2D265D0335002E844
:1021A000F075A1FE751A00E5088066C0E074F212B1
:1021B0002595A2AFE433FED2AF9061A4E0F8759B01
:1021C00000E59158540860087591F7122F1180238B
:1021D000E59158541060087591EF122F178014E59F
:1021E00091A2E092F0E8A2E082F05007E0C2E0F0B5
:1021F00012306D9061A3E0F8E5E9585404600E12C6
:10220000304375E9FB906193E0A2E640F2751A0055
:10221000EEA2E092AF7F010225F4C0E074F2122535
:1022200095A2AFE433FED2AF9061A5E0F8E5BF58C8
:102230005404600675BFFB12308580D1C3E498F862
:10224000E499F912227D8026C3E49AFAE49BFBE923
:1022500020E7E912227DE498F8E499F922C3E49892
:10226000F8E499F912227DE498F8E499F9C3E49A24
:10227000FAE49BFB22EB20E7CFE920E7E0B900106E
:10228000BB0008E88AF084F8AAF022E4FBC8FA222E
:10229000EB70227B10C833C8C933C9335007C39AC7
:1022A000C3DBF280069A50012ADBEAC833F4C8C9BE
:1022B00033F4C9FA2275F008E4C833C8C933C93306
:1022C000C99AC99B5004C92AC93BD5F0ECFBC83355
:1022D000F4C8E4C9FA2274F512252F74FA122AD32D
:1022E0007508047509007808122A2C7404122A9DB6
:1022F0007AF87B077903122DA97402122A3F908184
:10230000447808122C8E7402122CE57808122AFEEA
:1023100070487508027509007808122A2C74021298
:102320002A9D7AF67B077903122DA97402122A3F9F
:10233000851882851983E0F47003A3E0F4601B859F
:102340001882851983E0F8A3E08882F5837402F08F
:10235000A3F0A37469F0A374A5F0C2AF75D69F0271
:1023600000007406122A3F7F04022775080808EA55
:10237000C0E0EBC0E086F0E7A4FA180986F0E7A415
:102380002AFA180986F0E7A42AFA180986F0E7A4C1
:102390002AFA1986F0E7A4FBE5F02AFA190886F074
:1023A000E7A42BFBE5F03AFA190886F0E7A42BFB2B
:1023B000E5F03AFA18180986F0E7A4C5F02BFBE41B
:1023C0003AFA1908E7C5F0C6A426F6E5F03BFBE4A7
:1023D0003AFA1886F0E7A4F6E5F00826F6E43B089A
:1023E000F6E43A08F6D0E0FBD0E0FA22E4CFC0E011
:1023F000E4CEC0E0E4CDC0E0E4CCC0E075F020E67F
:1024000026F608E633F608E633F608E633F618183B
:1024100018EC33FCED33FDEE33FEEF33FFC3EC97E6
:1024200009ED9709EE9709EF97191919400FFFEC7D
:1024300097FC09ED97FD09EE97FE191906D5F0BF37
:10244000ECF709EDF709EEF709EFF7191919D0E0E4
:10245000FCD0E0FDD0E0FED0E0FF222518C582C010
:10246000E0E51934FFC583C0E0E518C3958224F880
:1024700010AF0885831985821880088583198582A5
:1024800018D2AFCEF0A3E520F0A37808E608F0A3B9
:10249000DEFAEFF0A3E58124FAF8E608F0A3E608F7
:1024A000F0A3E608F0A30808E608F0A3E608F0A306
:1024B00015811581D0E0FED0E0F8158115811581D8
:1024C000E8C0E0EEC0E022122CDAB90003022519C0
:1024D000E49004D1786E791A8002F0A3D8FCD9FA7E
:1024E000781A9020867A01BA00028007E493A3F656
:1024F00008DAF97A3E7B1E90209478C17901801524
:10250000E493A3AD82AE838A828B83F0A3AA82ABCD
:10251000838D828E83D8E9D9E77582B375838974F8
:10252000071229CE75825B75834B74001229CE2564
:1025300018C582C0E0E51934FFC583C0E0E518C3C3
:10254000958224F910AF0885831985821880088543
:102550008319858218D2AFCEF0A3E520F0A37808C6
:10256000E608F0A3DEFAEFF0A3E58124FBF8E60825
:10257000F0A3E608F0A30808E608F0A3E608F0A335
:1025800015811581D0E0FED0E0F815811581E8C0F5
:10259000E0EEC0E022C0D02518C582C0E0E51934C5
:1025A000FFC583C0E0E518C3958224F310AF08850A
:1025B00083198582188008858319858218D2AFC84F
:1025C000F0A3E9F0A3EAF0A3EBF0A37908E709F0A0
:1025D000A3D8FAECF0A3EDF0A3EEF0A3EFF0A3D0B4
:1025E000E0F0A3D0E0F0A3D0E0F0A3E520F0A3E575
:1025F000F0F0A322851983851882E0C0E0A3E0F9FA
:10260000A3E0FAA3E0FBA37808E0F608A3DFFAE072
:10261000FCA3E0FDA3E0FEA3E0FFA3E0C0E0A3E095
:10262000C0E0A3E0F5D0A3E0F520A3E0A3F5F0100F
:10263000AF088583198582188008858319858218DB
:10264000D2AFD082D083D0E0F8D0E03275F0108ED7
:10265000218F22858226858325851882851983E02E
:10266000CEA3E0CF852682852583EBC9EAC8EDCBD2
:10267000ECCAC3E833C8E933C9EA33CAEB33CBC386
:10268000EA9EF524EB9FF523B35004AB23AA24EC78
:1026900033CCED33CDD5F0DAAE21AF2222D083D0CA
:1026A00082ECC0E0EDC0E0E493A3FCE493A3FDED75
:1026B0004C600D1227B5EC24FFFCED34FFFD80EFDC
:1026C000E493A3FCE493A3FDED4C600D122888EC89
:1026D00024FFFCED34FFFD80EFD0E0FDD0E0FCE412
:1026E00093A3C0E0E493C0E022851983851882E0BB
:1026F000A3FEE0A3F5207808E0A3F608DFFAE0A344
:10270000FFE0A3C0E0E0A3C0E0E0A3C0E0E0A3C01E
:10271000E0E0A3C0E010AF08858218858319800827
:10272000858218858319D2AFD083D0820229D4D074
:1027300083D082E9C0E0E493A3C386F0C5F095F0AE
:10274000F908E493A386F0C5F095F0700BE493A329
:10275000C3994005E9048002A3E475F002A4258230
:10276000F582E5F03583F583D0E0F9E493A3C0E08A
:10277000E493C0E022851983851882E0A3FEE0A3DC
:10278000F5207808E0A3F608DFFAE0A3FFE0A3C095
:10279000E0E0A3C0E0E0A3C0E0E0A3C0E010AF0829
:1027A0008582188583198008858218858319D2AFA0
:1027B000D083D08222C0E0C3E4939608740193963C
:1027C00018400FE49366700808740193661870004F
:1027D0007019A3A3C3E49396087401939618A3A356
:1027E000400DD0E0D0E0D0E00226D9A3A3A3A3A35C
:1027F000A3D0E022D083D082C5F0E493A3C5F0C378
:1028000095F0F5F0E493A3C395F04005E5F004805E
:1028100001E475F002A42582F582E5F03583F583A5
:10282000E493A3C0E0E493C0E02274048004740243
:102830008000CCC0E0EDC0E0E518C39CCCAD1950E1
:10284000011D10AF068C188D1980068C188D19D2B9
:10285000AF122950D0E0FDD0E0FC2274028000CC01
:10286000C0E0EDC0E0E518C39CCCAD1950011D10CF
:10287000AF068C188D1980068C188D19D2AF1229CD
:102880002ED0E0FDD0E0FC22C0E0C0F088F0E49360
:102890006670080874019366187000A8F0A3A3700E
:1028A0000BD0F0D0E0D0E0D0E00226D9A3A3D0F046
:1028B000D0E022D083D082CCC0E0E493A3600612A3
:1028C00029901470FAE493A36006122ABD1470FADA
:1028D000D0E0FCE493A3C0E0E493C0E022C0E07445
:1028E000F2122595A2AFE433FED2AFC2C0901AE037
:1028F000E07009E5D1A2E45003122E1BEEA2E09293
:10290000AF7F010225F4C0E074F2122595758900AD
:10291000C2C5901AE0E0700E7A007B109007D1E0FB
:10292000F91233918003123C137F010225F4CAC0CF
:10293000E0E493A3C582CCC582C583CDC583F0A353
:10294000C582CCC582C583CDC583DAE5D0E0CA2275
:10295000CAC0E0E0A3C582CCC582C583CDC583F0E3
:10296000A3C582CCC582C583CDC583DAE6D0E0CAD3
:1029700022C008C3E096F50808A3E096420808A321
:10298000E096420808A3E09645087001D3D00822DB
:10299000C0E0E493A3D39C5010E493A3C39C400AEB
:1029A000D0E0D0E0D0E00228D0A3A3A3D0E02270F2
:1029B00009080808226016181818C6C333C608C6C6
:1029C00033C608C633C608C633C6D5E0EA22C09F60
:1029D000F59FE473D09F22D083D082C09FE493C040
:1029E000E0740193C0E0740293F59F22C0E0C0D070
:1029F000E8C0E0A8A8D2AFC2C7751A00E8A2E79263
:102A0000AFD0E0F8D0D0D0E0322518F58210AF0872
:102A1000F518400C15198008F51840021519D2AFA9
:102A2000851983227404800A74038006740280026C
:102A30007401C0E0F404122A09D0E0122C9D220097
:102A4000C0D0251810AF08F518500C05198008F5EE
:102A50001850020519D2AFD0D022BB0102E722C024
:102A600082C08389828A83BB0003E08002E493D022
:102A700083D082226016080808C6C313C618C6137E
:102A8000C618C613C618C613C6D5E0EA222518F81C
:102A9000E43519F9222518FAE43519FB222518FC2A
:102AA000E43519FD22C3E0C696F608A3E0C696F603
:102AB00008A3E0C696F608A3E0C696F622C0E0E4B6
:102AC00093A36C7009D0E0D0E0D0E00228D0A3A39B
:102AD000D0E022251810AF08F518400C1519800811
:102AE000F51840021519D2AF22E76670100809E701
:102AF00066700A0809E76670040809E76622E0665E
:102B0000701008A3E066700A08A3E066700408A3CA
:102B1000E06622C3E09608A3E09608A3E09608A327
:102B2000E096A2D265D03322C3E096F008A3E096E7
:102B3000F008A3E096F008A3E096F022C3E697F62B
:102B40000809E697F60809E697F60809E697F622D7
:102B5000C3E49396087401939608740293960874DC
:102B600003939622E627F60809E637F60809E637C2
:102B7000F60809E637F622E026F608A3E036F6085E
:102B8000A3E036F608A3E036F622E493F6087401D3
:102B900093F608740293F608740393F622E647F658
:102BA0000809E647F60809E647F60809E647F62267
:102BB000E657F60809E657F60809E657F60809E663
:102BC00057F622E056F608A3E056F608A3E056F6BC
:102BD00008A3E056F622E056F008A3E056F008A35A
:102BE000E056F008A3E056F022E026F008A3E03615
:102BF000F008A3E036F008A3E036F022700422606B
:102C00000D18C6C333C608C633C6D5E0F41822E48F
:102C1000C396F608E496F608E496F608E496F622DB
:102C2000C6F4C608C6F4C608C6F4C608C6F4C6226A
:102C3000600D08C6A2E713C618C613C6D5E0F32276
:102C4000C3E7960809E7960809E7960809E7962278
:102C5000C3E09608A3E09608A3E09608A3E09622B6
:102C600075D00075813F7518D1751904000224C70D
:102C7000600C08C6C313C618C613C6D5E0F422E616
:102C8000F008A3E6F008A3E6F008A3E6F022E0F6D9
:102C900008A3E0F608A3E0F608A3E0F622CAC0E025
:102CA000E6F0A308DAFAD0E0FA22EAF0A3EBF0A308
:102CB000ECF0A3EDF022E0FAA3E0FBA3E0FCA3E03C
:102CC000FD22E0F8A3E0F9A3E0FAA3E0FB22E8F09C
:102CD000A3E9F0A3EAF0A3EBF022E5C754F844011E
:102CE000F5C77901222518F582E43519F5832212FA
:102CF00029D7C9DF051229D7E5DF051229D72AE030
:102D0000051229D7BAE0051229D712E1051229D7F1
:102D1000F4E1051229D7D9E2051229D71EE30512DD
:102D200029D77FE3051229D70BE4051229D737E409
:102D3000051229D782E4051229D7A8E4051229D75C
:102D400040E5051229D7E9E5051229D73CE6051229
:102D500029D76DE6051229D7A4E6051229D748E838
:102D6000051229D714E9051229D7C7E9051229D771
:102D7000AE96071229D7BF96071229D75D9707127B
:102D800029D77597071229D7ED7F001229D7E6FFBB
:102D9000031229D78497071229D79497071229D7A6
:102DA000A697071229D73798071229D7EE9207124C
:102DB00029D77193071229D7D793071229D7F07F04
:102DC000001229D7D47F001229D7E47F001229D717
:102DD000E77F001229D7EA7F001229D7F87F001277
:102DE00029D7A287071229D7C487071229D72C8988
:102DF000071229D7B089071229D75FC3061229D72E
:102E0000CCC3061229D794C4061229D709C50612C5
:102E100029D70CC6061229D739C8061229D79EC849
:102E2000061229D7E9C8061229D7FAC8061229D7E7
:102E300009C9061229D71FC9061229D732C9061295
:102E400029D73DC9061229D74BC9061229D75CC913
:102E5000061229D74BFA031229D777FA031229D77A
:102E6000F9FC031229D750FD031229D790FD031254
:102E700029D7A4FD031229D7BDFD031229D7AEFE21
:102E8000031229D75FFF031229D773FF031229D733
:102E90009F8B071229D7C38B071229D7DC8B071208
:102EA00029D70E8C071229D73E8C071229D76B8C95
:102EB000071229D7758C071229D7D78C071229D763
:102EC000E68C071229D7F08C071229D7FD8C071240
:102ED00029D759FD061229D779FD061229D7B8FD41
:102EE000061229D7D3FD061229D7F2FD061229D7DB
:102EF00058FE061229D761FE061229D7BEFE061219
:102F000029D7CDFE061229D7F1FE061229D7B2FF26
:102F1000061229D7BFFF061229D7D0FF061229D7DC
:102F2000F898071229D71099071229D73C99071248
:102F300029D7C6CE061229D720D0061229D72ED0DF
:102F4000061229D741D0061229D756D0061229D702
:102F50006BD0061229D77ED0061229D7F2D00612DE
:102F600029D757D1061229D7DFD1061229D75BD22C
:102F7000061229D71FD3061229D72FD3061229D715
:102F80003ED3061229D765FF011229D789FF011206
:102F900029D7B1FF011229D7D9FF011229D7CA8237
:102FA000071229D7F182071229D71083071229D7D0
:102FB0007883071229D70080071229D719800712B2
:102FC00029D72580071229D73980071229D757809A
:102FD000071229D76180071229D76B80071229D7DA
:102FE0007E80071229D70B81071229D77A81071211
:102FF00029D7A981071229D7F781071229D7468235
:10300000071229D76182071229D76B82071229D7A5
:103010007C82071229D7BF82071229D78FFF03129C
:1030200029D7DAFF031229D77EA4061229D7A8A42C
:10303000061229D7C5A4061229D7D8A4061229D763
:10304000EEA4061229D74CA5061229D77FA5061291
:1030500029D770A9061229D7D0AA061229D703ABFF
:10306000061229D74DAB061229D7AAAC061229D7CA
:10307000D2AC061229D7E7AC061229D7F7AC061254
:1030800029D73BAD061229D796AD061229D7A6AD92
:10309000061229D7628E071229D77C8E071229D7EC
:1030A000A48E071229D7BD8E071229D7E18E0712E9
:1030B00029D7FF8E071229D7168F071229D7448FD9
:1030C000071229D75F8F071229D74498071229D7EB
:1030D0008A98071229D7BFF9061229D7CFF9061205
:1030E00029D7D6FA061229D70AFB061229D736FBAA
:1030F000061229D759FB061229D777FB061229D7C2
:10310000B1FB061229D71AFC061229D75CFC06125D
:1031100029D79BFC061229D7CCFC061229D7F7FC2D
:10312000061229D784EE061229D7E9EE061229D70E
:103130008FEF061229D7C6EF061229D7A8EA051283
:1031400029D73FEB051229D76DED051229D758F085
:10315000051229D7E6F1051229D752F2051229D70F
:10316000A1F5051229D7ECF6051229D7B990071257
:1031700029D70491071229D78AFD021229D79AFF6D
:10318000021229D71AF8051229D747F8051229D7AC
:1031900086F9051229D71FFB051229D7A3FD0512B1
:1031A00029D7DAFD051229D728FF051229D76FC9BB
:1031B000061229D715CC061229D7BACC061229D760
:1031C000E6CC061229D714CD061229D749CD06120E
:1031D00029D771CD061229D7D1CD061229D7F08C67
:1031E000061229D7D790061229D7C692061229D7D8
:1031F000EF93061229D7CF94061229D77D9606128F
:1032000029D72798061229D7F798061229D74B995C
:10321000061229D77185071229D77C85071229D76D
:103220009D85071229D7E8CE051229D75ED405124D
:1032300029D7CCD5051229D788D7051229D781D807
:10324000051229D7B3D9051229D7C5DA051229D70E
:10325000A5DB051229D77CDC051229D76C9C051249
:1032600029D7A49C051229D7CAA6051229D7ABA72E
:10327000051229D7F7A8051229D740AA051229D780
:10328000F6AA051229D7CAAB051229D7B1AC051287
:1032900029D799AD051229D73BAE051229D765AEBE
:1032A000051229D715B0051229D785B0051229D7DF
:1032B0009EB0051229D7F5B1051229D7A6B205127D
:1032C00029D728B3051229D7D4B3051229D744B476
:1032D000051229D7E0B4051229D757B5051229D709
:1032E0008FB5051229D791B6051229D750B7051207
:1032F00029D7F6B7051229D73AFE041229D764FE5A
:10330000041229D779FF041229D77CFF041229D788
:10331000C695071229D70E96071229D7509607127D
:1033200029D76096071229D7A496071229D7E0BC9F
:10333000061229D71EBD061229D787BD061229D726
:10334000A4BD061229D7BDBD061229D76FBE06122D
:1033500029D778BE061229D7BDBE061229D7F3BEDB
:10336000061229D70ABF061229D77CBF061229D711
:1033700009C0061229D73FC0061229D796C00612E7
:1033800029D7FAC0061229D71DC1061229D781C133
:10339000061229D7DDC1061229D718C2061229D76D
:1033A0004DC2061229D75FC2061229D771C2061272
:1033B00029D7A9C2061229D7F5C2061229D733C3C5
:1033C000061229D760D8061229D7A0D9061229D704
:1033D000C3D9061229D7D4D9061229D7C9DB0612B8
:1033E00029D7E9DB061229D79B7D001229D7D17D89
:1033F000001229D7197E001229D7757F001229D70C
:10340000E1E9021229D712EB021229D74CEB021282
:1034100029D70BED021229D735ED021229D7C2EFB9
:10342000021229D702F0021229D799F1021229D7E4
:103430002CF2021229D784F2021229D727F30212A2
:1034400029D75FF3021229D7A1F3021229D710F569
:10345000021229D762F6021229D785F8021229D75B
:10346000B3F8021229D7DAF8021229D7E3F80212C8
:1034700029D73AF9021229D7CCF9021229D7BAFC76
:10348000021229D73DFD021229D756FF051229D76E
:103490006CFF051229D776FF051229D7D0FF051238
:1034A00029D7DEE1061229D7F4E1061229D799E2DD
:1034B000061229D7D8E2061229D7F5E2061229D733
:1034C00026E3061229D773E3061229D7A6E30612CC
:1034D00029D7E1E3061229D7CDE5061229D72EE632
:1034E000061229D7928F071229D7F18F071229D7F1
:1034F0004B90071229D7DB91071229D74D9207125B
:1035000029D78B92071229D7CC92071229D7D6AD8B
:10351000061229D7DCAD061229D71DAE061229D70F
:103520000FB0061229D73FB0061229D7AEB0061247
:1035300029D77CB1061229D7BDB1061229D7EBB124
:10354000061229D775B2061229D78CB2061229D7CE
:1035500099B2061229D7A3B2061229D73FB4061290
:1035600029D74FB5061229D798B5061229D7EEF6F6
:10357000011229D704F7011229D797F7011229D789
:10358000C3F8011229D7B8F9011229D755FA011247
:1035900029D795FA011229D713FB011229D770FBFD
:1035A000011229D780FB011229D7A7FB011229D7C5
:1035B000FAFB011229D76BFD011229D770FD011208
:1035C00029D790FD011229D799DB031229D7CBDB2C
:1035D000031229D764DC031229D7BDDD031229D7D2
:1035E000A4DE031229D76FE0031229D78BE0031260
:1035F00029D7DAE0031229D75CE1031229D7B7E112
:10360000031229D7CAE1031229D72EE2031229D7C0
:1036100089E2031229D739E3031229D72AE40312D6
:1036200029D765E4031229D7EBE4031229D7E5E68D
:10363000031229D7A6E7031229D7CDE8031229D709
:103640004AE9031229D709EA031229D78EEA03129D
:1036500029D7DAEA031229D7F4EA031229D73DEB76
:10366000031229D753EB031229D709EC031229D7E8
:103670002FED031229D73AED031229D7A1ED03123A
:1036800029D7F4ED031229D752EE031229D74EEFB2
:10369000031229D7F1F1031229D710F2031229D707
:1036A00021F3031229D745F3031229D7BBF30312E1
:1036B00029D77BF4031229D7B2F4031229D724F5B2
:1036C000031229D744F6031229D774F6031229D717
:1036D00087F6031229D78AF6031229D793F6031225
:1036E00029D7A5F6031229D71FF7031229D755F7B3
:1036F000031229D768F7031229D794F7031229D7A1
:10370000BBF7031229D7DFF7031229D78DF803126D
:1037100029D7FFF8031229D736F9031229D740F920
:10372000031229D777F9031229D78DF9031229D764
:10373000AAF9031229D7D8F9031229D7EEF90312EF
:1037400029D706FA031229D718FA031229D7F093BA
:10375000071229D70194071229D78C94071229D769
:103760002FDD061229D76DDD061229D7F9DD0612E5
:1037700029D704DF061229D720E1061229D755E1FF
:10378000061229D7D5B5061229D724B6061229D78D
:10379000C4B7061229D798B9061229D7DAB9061282
:1037A00029D7A5BA061229D7ADBB061229D7CFBB98
:1037B000061229D72BBC061229D7ACBC061229D772
:1037C0006651001229D78851001229D71B530012C5
:1037D00029D76453001229D7D853001229D755543A
:1037E000001229D7BA54001229D7BD54001229D784
:1037F000FF54001229D76E55001229D71D5600120A
:1038000029D72056001229D79556001229D7D85605
:10381000001229D7CE5A001229D7395C001229D7B5
:10382000775C001229D7CD5C001229D713600012F3
:1038300029D79060001229D73E62001229D76E6303
:10384000001229D7A464001229D71E65001229D7B7
:103850004166001229D7E666001229D7FA660012DF
:1038600029D7C867001229D7F168001229D70A6B37
:10387000001229D7E46C001229D7756D001229D7E0
:103880008370001229D72471001229D713720012F5
:1038900029D76275001229D77275001229D7F076E0
:1038A000001229D78177001229D77E78001229D7F4
:1038B000157A001229D7AF7A001229D7D47B0012CB
:1038C00029D71E7C001229D7DE7C001229D7008060
:1038D000051229D7A080051229D70A81051229D7F8
:1038E0002381051229D7BA81051229D7FE81051235
:1038F00029D72083051229D75C83051229D7D883BD
:10390000051229D72384051229D78284051229D7C5
:103910009285051229D7B288051229D7D3890512B5
:1039200029D74E8A051229D7358C051229D7D58C6F
:10393000051229D77C8D051229D7DF8D051229D7CD
:10394000548E051229D7638F051229D73790051297
:1039500029D76D90051229D79C90051229D750912F
:10396000051229D77C91051229D7FC91051229D778
:103970007C93051229D70895051229D75096051270
:1039800029D7BB97051229D7C798051229D76A9955
:10399000051229D7E399051229D7119B051229D7BA
:1039A00077BB041229D7DABB041229D722BC041230
:1039B00029D766BC041229D7D0BC041229D719BD57
:1039C000041229D751BD041229D7EBBD041229D7FF
:1039D00045BE041229D792BF041229D71BC0041276
:1039E00029D742C0041229D74CC1041229D737C2A3
:1039F000041229D784C2041229D783C3041229D7F9
:103A0000ABC3041229D7F4C4041229D705C5041284
:103A100029D71DC5041229D706C6041229D7ECC61A
:103A2000041229D7F5C7041229D71FC8041229D7B1
:103A300037C8041229D751C8041229D788C80412DC
:103A400029D7A8C8041229D7CFC8041229D7E6C895
:103A5000041229D7C2C9041229D71ACA041229D7B5
:103A6000C3CC041229D7F2CD041229D728CE0412D0
:103A700029D732CE041229D749CE041229D7B6CE7F
:103A8000041229D79FCF041229D7D5CF041229D7E2
:103A9000A6D0041229D747D1041229D775D1041210
:103AA00029D782D2041229D7A1D2041229D724D32C
:103AB000041229D795D3041229D7D9D3041229D7B0
:103AC0005DD4041229D7BAD4041229D767D50412B9
:103AD00029D74DD7041229D72DD8041229D783D836
:103AE000041229D7E1D9041229D706DC041229D7F8
:103AF000B0DE041229D75AE0041229D72AE10412B1
:103B000029D7A2E1041229D7C4E1041229D7B3E2CC
:103B1000041229D7A3E3041229D70EE4041229D7EB
:103B20003BE6061229D74FE8061229D715E90612F7
:103B300029D76AE9061229D7E7E9061229D77BEACD
:103B4000061229D799EA061229D7DDEA061229D7E3
:103B500003EB061229D729EB061229D73FFA0412E4
:103B600029D759EB061229D7C4EB061229D706EC40
:103B7000061229D71BEC061229D722ED061229D7E7
:103B80003DED061229D746ED061229D74FED061254
:103B900029D758ED061229D762ED061229D783EDF1
:103BA000061229D700EE061229D777D3061229D795
:103BB000D8D7061229D7F4D7061229D7F9D7061273
:103BC00029D7CFDD051229D72EF6061229D744F6BC
:103BD000061229D7DDF7061229D726F8061229D7AB
:103BE00092F8061229D785F9061229D7078D0712F0
:103BF00029D7DD94071229D70195071229D71695E1
:103C0000071229D73695071229D76D95071229D79C
:103C10007E95071229D79595071229D7A9FF041277
:103C200029D70080031229D73280031229D79E801A
:103C3000031229D73981031229D7D881031229D732
:103C40001D82031229D73F82031229D758820312FB
:103C500029D77E82031229D7A082031229D7DE82B8
:103C6000031229D72283031229D74483031229D7A9
:103C7000A683031229D76D84031229D72485031242
:103C800029D79685031229D76886031229D7B286C9
:103C9000031229D70587031229D76B87031229D767
:103CA000A587031229D7F787031229D71388031290
:103CB00029D73E88031229D7458A031229D7998B21
:103CC000031229D7BB8B031229D7EF8B031229D7F5
:103CD000108C031229D71F8C031229D72A8C0312A8
:103CE00029D7DA8C031229D7438D031229D7F08DF7
:103CF000031229D7288E031229D7EE8E031229D753
:103D0000FB8F031229D74590031229D7D4900312B1
:103D100029D73891031229D77391031229D7DF933A
:103D2000031229D73395031229D76C98031229D788
:103D30003999031229D7C799031229D7DB9903129E
:103D400029D7049A031229D7769A031229D70A9BF6
:103D5000031229D77A9B031229D7629C031229D711
:103D6000849C031229D7EA9D031229D7039E0312CC
:103D700029D7169E031229D7739E031229D7829E34
:103D8000031229D70B9F031229D7219F031229D78A
:103D90002DA0031229D73AA0031229D743A003125A
:103DA00029D71BA2031229D74BA3031229D75BA340
:103DB000031229D76AA4031229D7E1A4031229D731
:103DC0001AA5031229D74AA6031229D790A60312CF
:103DD00029D75CA8031229D734AC031229D748ACE1
:103DE000031229D752AC031229D75CAC031229D78E
:103DF00066AC031229D770AC031229D789AC031221
:103E000029D793AC031229D711AD031229D71CADC2
:103E1000031229D749AD031229D76EAD031229D752
:103E200079AD031229D7C7AD031229D7D1AD03123B
:103E300029D7DCAD031229D700AE031229D724AE4F
:103E4000031229D780AE031229D7C6AE031229D791
:103E5000E3AE031229D760AF031229D797AF03123D
:103E600029D7D6AF031229D723B0031229D7A5B07B
:103E7000031229D73EB1031229D70EB3031229D753
:103E80006CB3031229D788B4031229D7AEB4031236
:103E900029D7EDB5031229D713B9031229D754BB7B
:103EA000031229D730BD031229D7C6BD031229D763
:103EB000EDBF031229D799C0031229D7CEC0031230
:103EC00029D733C1031229D73DC1031229D767C3AC
:103ED000031229D755C4031229D79EC5031229D727
:103EE000DEC5031229D784C6031229D715C80312C9
:103EF00029D79EC9031229D7BEC9031229D717CAC9
:103F0000031229D719CB031229D763CB031229D760
:103F1000B3CB031229D79DCC031229D712CD03129C
:103F200029D72CCE031229D7A7CE031229D7ACCF7D
:103F3000031229D757D2031229D776D2031229D7D1
:103F4000D7D3031229D799D5031229D7EDD5031258
:103F500029D7A5D6031229D754D7031229D7B4D706
:103F6000031229D76AD8031229D7FFD8031229D7F9
:103F70006BD9031229D7A5D9031229D7D6D9031291
:103F800029D732DB031229D70080021229D73280C9
:103F9000021229D76980021229D75082021229D72A
:103FA0009082021229D77383021229D7CB8302127F
:103FB00029D70685021229D75285021229D77A8875
:103FC000021229D7E68B021229D7338D021229D784
:103FD000C98D021229D7D58D021229D7078E021258
:103FE00029D7898F021229D79790021229D7C19019
:103FF000021229D71891021229D77191021229D7DA
:10400000DD91021229D7F493021229D78395021267
:1040100029D74D96021229D78B97021229D7BB991F
:10402000021229D78B9C021229D7989C021229D7F9
:104030001F9D021229D7C79D021229D70A9E02127C
:1040400029D7539E021229D7A79E021229D70C9F67
:10405000021229D7749F021229D7919F021229D7E1
:10406000C19F021229D7F69F021229D7C6A00212B9
:1040700029D76FA1021229D7F3A3021229D713A5BA
:10408000021229D7FCA5021229D77EA6021229D72F
:10409000A0AA021229D7DDAA021229D735AB021233
:1040A00029D768AB021229D7E9AB021229D736AC5F
:1040B000021229D7C1AC021229D713AD021229D797
:1040C000EAAD021229D7A3AE021229D73EAF0212DF
:1040D00029D757B2021229D777B3021229D728B7A6
:1040E000021229D746B8021229D749B8021229D795
:1040F00078B8021229D77EBA021229D757BB02120A
:1041000029D78CBB021229D794BC021229D74ABDE9
:10411000021229D7F0BE021229D754BF021229D7A2
:1041200079BF021229D7B8BF021229D7F9BF0212EC
:1041300029D7D1C0021229D7AFC1021229D7DCC1B9
:10414000021229D7A9C2021229D7DFC4021229D725
:1041500050C5021229D790C5021229D7C9C502122B
:1041600029D75DC6021229D7A6C7021229D769CB63
:10417000021229D758CC021229D73FCD021229D7D3
:10418000B7CD021229D779CE021229D72FD0021229
:1041900029D7B7D0021229D7CCD1021229D7DDD125
:1041A000021229D7F5D1021229D706D2021229D735
:1041B0001AD2021229D752D2021229D780D2021261
:1041C00029D707D4021229D7D9D4021229D760D50A
:1041D000021229D79BD5021229D7F9D5021229D765
:1041E00040D6021229D705D8021229D7B7D8021211
:1041F00029D7E7D8021229D7CBD9021229D77CDADE
:10420000021229D737DC021229D7EEDC021229D795
:1042100023DD021229D78BDD021229D7BADE021262
:1042200029D76CDF021229D79DDF021229D7B5DF0B
:10423000021229D744E0021229D7F8E2021229D744
:10424000D0E4021229D7ECE4021229D708E50212C1
:1042500029D7D6E5021229D7BFE9021229D775F26C
:10426000061229D7B5F2061229D768F4061229D703
:1042700077F4061229D79DB8051229D7B4BD0512C7
:1042800029D7FFBD051229D74FC0051229D7E3C191
:10429000051229D771C2051229D7D2C4051229D710
:1042A000D7C6051229D72BC7051229D73AC9051237
:1042B00029D78DC9051229D7E8C9051229D70ACAF5
:1042C000051229D711CA051229D729CA051229D7DB
:1042D00009CB051229D7E8CB051229D7C5810112D0
:1042E00029D70782011229D73D87011229D789874B
:1042F000011229D7CF87011229D71E89011229D788
:104300007A89011229D7BF89011229D7528B01124C
:1043100029D7A88E011229D7CD8F011229D74F9BFB
:10432000011229D7E29B011229D73F9F011229D7F9
:104330007EA0011229D7D9A0011229D721A20112EA
:1043400029D70DA3011229D7A4A5011229D713A794
:10435000011229D79AA7011229D79DA7011229D79F
:1043600012A8011229D71CA8011229D729A80112C5
:1043700029D754A8011229D704A9011229D701AAC3
:10438000011229D7ABAA011229D738AB011229D7BC
:1043900056AB011229D76FAB011229D798AB011286
:1043A00029D7BAAB011229D700AE011229D7E3AE43
:1043B000011229D729AF011229D7A8AF011229D795
:1043C00054B0011229D786B0011229D7D8B00112F2
:1043D00029D714B1011229D753B1011229D7A3B19A
:1043E000011229D7A8B1011229D7FCB1011229D78E
:1043F00028B2011229D704B3011229D754B30112EC
:1044000029D7C1B3011229D71BB4011229D7B2B4DD
:10441000011229D7F7B7011229D70FB9011229D7ED
:10442000A8BA011229D7DBBD011229D76DBE01122E
:1044300029D764C1011229D723C2011229D767C223
:10444000011229D70CC4011229D720C4011229D77F
:104450002AC4011229D734C4011229D740C4011239
:1044600029D75CC4011229D7BCC6011229D7FBC6C3
:10447000011229D705C7011229D70FC7011229D761
:1044800095C7011229D7EDC7011229D70AC9011210
:1044900029D76EC9011229D77BCA011229D7BFCAF1
:1044A000011229D76BCB011229D744CC011229D78D
:1044B000FFCC011229D70CCE011229D746CF011209
:1044C00029D743D0011229D75BD0011229D7B2D006
:1044D000011229D7BCD0011229D7C6D0011229D781
:1044E000D1D0011229D7EFD0011229D737D101122B
:1044F00029D799D1011229D7C0D1011229D7D2D1F8
:10450000011229D76DD2011229D7A2D2011229D7BF
:10451000A1D3011229D7EFD3011229D7E9D401126F
:1045200029D71FD5011229D7A2D5011229D713D611
:10453000011229D7BFD7011229D7E9D8011229D7EB
:10454000ACD9011229D77DDA011229D7E8DA011294
:1045500029D765DB011229D792DC011229D726DD84
:10456000011229D776DD011229D7E1DD011229D701
:10457000A7DE011229D7F1DE011229D749DF011286
:1045800029D721E0011229D744E0011229D707E1F8
:10459000011229D729E1011229D792E1011229D765
:1045A000A8E3011229D798E4011229D762E5011284
:1045B00029D79AE7011229D7E4E7011229D734E86D
:1045C000011229D7A1E8011229D703E9011229D73D
:1045D00031E9011229D755E9011229D78AE90112D7
:1045E00029D7BBE9011229D7EEE9011229D748EAF8
:1045F000011229D79BEA011229D7C7EB011229D74B
:1046000074ED011229D7C2ED011229D7EBED011289
:1046100029D777EE011229D7ECEE011229D7FAEE4D
:10462000011229D71EEF011229D77BEF011229D7DA
:104630009AEF011229D750F0011229D788F0011200
:1046400029D7CBF0011229D72EF1011229D720F357
:10465000011229D74AF3011229D74EF4011229D7A2
:1046600060F5011229D710F6011229D769990612AF
:1046700029D7A199061229D7C299061229D7049AD7
:10468000061229D7669A061229D7709A061229D7D8
:10469000809A061229D7BB9A061229D79B9E06122A
:1046A00029D788A0061229D76EA2061229D705A3FA
:1046B000061229D7A7A3061229D79680041229D754
:1046C0004181041229D7EF81041229D7F5820412FF
:1046D00029D71583041229D73E84041229D7F985D6
:1046E000041229D76C86041229D71087041229D7FF
:1046F0001C88041229D78788041229D7C38804127A
:1047000029D70689041229D74189041229D7838918
:10471000041229D7188A041229D7948A041229D797
:104720005E8B041229D73B8C041229D7D38C041238
:1047300029D7ED8C041229D71D8D041229D74E8D4F
:10474000041229D7148E041229D7248E041229D7D3
:10475000738E041229D7808E041229D7898E0412F1
:1047600029D7078F041229D7638F041229D7AE8F58
:10477000041229D7C98F041229D7F48F041229D71C
:104780001190041229D71D90041229D7B491041254
:1047900029D7CD91041229D75292041229D76592B4
:1047A000041229D78492041229D72893041229D7F6
:1047B000A994041229D75C96041229D7F296041200
:1047C00029D7F596041229D76597041229D783971C
:1047D000041229D71A98041229D76298041229D7EB
:1047E0006598041229D72B99041229D79899041295
:1047F00029D7BE99041229D7499A041229D7679A52
:10480000041229D7AD9A041229D7619B041229D723
:10481000AB9B041229D7DA9B041229D7379C0412C8
:1048200029D76C9C041229D7989C041229D7A69CDE
:10483000041229D7F39C041229D7639D041229D7A7
:10484000AC9D041229D7F89D041229D7249E041286
:1048500029D72F9E041229D74D9E041229D7389F9D
:10486000041229D7429F041229D77D9F041229D709
:104870008D9F041229D7969F041229D7EA9F04120C
:1048800029D7FE9F041229D72DA1041229D740A1B0
:10489000041229D757A1041229D76CA1041229D7D1
:1048A000FAA1041229D73FA2041229D7CBA20412DD
:1048B00029D7D6A2041229D718A4041229D733A4C1
:1048C000041229D77FA4041229D7EEA4041229D7F1
:1048D00027A5041229D741A5041229D7A1A504129E
:1048E00029D740A6041229D78BA6041229D75BA981
:1048F000041229D70DAA041229D77AAA041229D79B
:10490000BAAC041229D7D2AC041229D7D5AC041200
:1049100029D7E1AC041229D7F5AC041229D7FDAC94
:10492000041229D730AD041229D733AE041229D787
:10493000C0AE041229D730AF041229D7B2AF041287
:1049400029D773B0041229D792B0041229D733B1F2
:10495000041229D790B1041229D793B1041229D790
:10496000C0B1041229D7D5B1041229D749B2041213
:1049700029D798B3041229D79EB4041229D729B590
:10498000041229D744B6041229D70CB7041229D728
:104990003DB7041229D760B7041229D769B70412AA
:1049A00029D798B7041229D728B8041229D7DEB816
:1049B000041229D753B9041229D7FAB9041229D7F6
:1049C0006FBA041229D7A6BA041229D7E4BA04127E
:1049D00029D71ABB041229D7E8F9041229D73CF9C0
:1049E000041229D774F7041229D7BDF6041229D767
:1049F0008AF6041229D73FF6041229D7DAF50412F1
:104A000029D799F5041229D779F5041229D7ABF4DF
:104A1000041229D738F4041229D7D6F3041229D75F
:104A200079F3041229D7ECF1041229D789F1041281
:104A300029D7DDF0041229D7D4F0041229D7C8F001
:104A4000041229D795F0041229D746ED041229D76C
:104A500018ED041229D7B3EC041229D7A0EC0412E4
:104A600029D795EC041229D791DD051229D759ECE5
:104A7000041229D76BDD051229D7EFDC051229D7DF
:104A8000ABFD041229D760FD041229D7F4FC0412EF
:104A900029D791FC041229D787EA041229D770EA92
:104AA000041229D7A6E9041229D703E9041229D749
:104AB00067FC041229D727E7041229D7C9E5041295
:104AC00029D7BEE5041229D736E5041229D7258A4D
:104AD000071229D7CDE4041229D7EBFB041229D7FA
:104AE000A9E4041229D7B98C061229D7728C0612B0
:104AF00029D7118C061229D7DC8B061229D7B18B46
:104B0000061229D77D8B061229D7558B061229D775
:104B1000D88A061229D7C28A061229D7928A061283
:104B200029D7088A061229D74D86061229D7058467
:104B3000061229D7DD81061229D75F81061229D7EF
:104B40001081061229D70080061229D79D800612EF
:104B500029D75E80061229D741EB0600000080FBB2
:104B6000E4738F000100DE1E87000100D41A3500B7
:104B70000400A21E25000200A61E26000200A81E98
:104B800027000200AA1E28000100B41E290001000F
:104B9000B51E84000400AC1A860001004C1E2A00D9
:104BA0000100B61E2B000100B71E2C000100BD1E27
:104BB0002D000800BA1A2E000100BE1E2F000100B1
:104BC000BF1E30000100C01E31000100C11E3200B6
:104BD0000100C21A33000100C31A34000100C21ED2
:104BE00036000100C41A38000100C31E390001005C
:104BF000BC1E83000200DB1E63000100CF1A6400AC
:104C00000100B81E65000100B91E6D000100D01A38
:104C100071000800B21A66000100DA1E43000100AC
:104C2000CB1E44000200CC1E45000100CE1E4600F3
:104C30000200CF1E47000800C71A48000100D11E1D
:104C40004B000100D21E04000100DD1EA100010086
:104C5000E11E37000100E01E88000100DF1E3C005D
:104C60000100C51A3D000100C41E49000200D31E08
:104C700067000100D11A4D000200D51E4E00010050
:104C8000D71E4F000200D81E3E000100CA1E510070
:104C90000100C61E52000100C71E53000100C91EBC
:104CA00054000100C61A0000000000000001363662
:104CB00001010001020100010301000104010606D7
:104CC00005020000070100340801000F090401017A
:104CD0000D0100FF0E08000017020000190100FF7F
:104CE0001A0100011B0100FE1C0100081D0200004A
:104CF0001F01000120010001210200002301000F1B
:104D0000240200002601000127010008280200FFFC
:104D10002A0100072B0102402C0100002D01000197
:104D20002E0100012F0100FF30010B1D3108000092
:104D30003A0100083B01000F3C0100013D0100FF6A
:104D40003E04000042040000460400004A04000043
:104D50004E04000052040000560400005A040000F3
:104D60000103710301030103010301030103220392
:104D70000203010310030003000300030003000308
:104D8000000300034203000324030603000300039F
:104D9000040312032503230325032303040304034D
:104DA0000003000300034403000300032303000384
:104DB000650321003503810300030503000300039D
:104DC0000003000325032303030271023001600284
:104DD000110270020102020202028002100261024C
:104DE0003A0041006302730272026202430200024F
:104DF0001302380000020002040212020002000244
:104E00000002000204020402370037003C024402A0
:104E10000002390000020002650200023502810230
:104E200000020502820283020002030071003001C9
:104E30006000110070003102200350048000100057
:104E40006100000014006300730072006200430000
:104E50000000130006000000000004001200000023
:104E600000000000000004000400370037003C028E
:104E70004400000000000000000065000000350054
:104E800081000000050000008300000001017101A5
:104E90000101010111010101310101010101800143
:104EA000100161013B001400630173017201620192
:104EB00043010001130106013D0135000401120107
:104EC000000100010001000104010401330133016C
:104ED0003C0144013201360000010001650100017E
:104EE00035008101000105018201830100010304F5
:104EF0007104020460041104700402040204010439
:104F000002041004610400041404630473047204B2
:104F100062044304000413040604000400040404AF
:104F2000120400040004000400045104640000049E
:104F300000040004440400040004000400046504A8
:104F400000043504810464000504000483040004A3
:104F500036000100060000000F0000000000000005
:104F600000000000000003FFFF00000403FFFF003B
:104F700000FFFF0FF4010005C4040320000100003E
:104F80000B000000000000000003010F0000000003
:104F90000000000000000000000000000000000011
:104FA00000000000000000000000000000001300EE
:104FB00065381F006B381F80713800000D39010003
:104FC0000D390200E7370280E1370300ED370400B6
:104FD000F3370480F9370500FF3706000B3830003F
:104FE0002938310023383200353833003B3835005A
:104FF00041383400473836004D3811005938140014
:105000005F3815001D38FFFF00000A000000020095
:105010000000040000000800000010000000200054
:1050200000004000000080000000000100000002BD
:105030000000000400000008000000100000002034
:10504000000000400000012143065143084B430B80
:105050006F4310373F0A8143022743053F43072D23
:10506000430C09430D154364033DFF000007ECFDAD
:10507000FDFDECDCDCCCBCACAC9C9C8C7C7C6C6C1E
:105080005C5C5C4C4C3C3C2C2C1C1C03EAF5E5D5D0
:10509000D5C5B5A595958585757565655555454500
:1050A0003535252515150500160F00000B150B02CB
:1050B0000002220F3300000E0F000000000000006D
:1050C0000000000000000000005A69674265654169
:1050D0006C6C69616E63653039D0D1D2D3D4D5D6CA
:1050E000D7D8D9DADBDCDDDEDF0001191618161699
:1050F0001823030000034D4C4651181A25050230B1
:105100003016181920231A1C1E30003C40423A3F2A
:105110003F392F4730303017181921301B1D1F30F1
:105120000C0E020B040B0A0708000F020402010117
:105130000101090200BE040AE80300000E0000009D
:10514000E8030C001E0000007F0005030004091E98
:10515000100A0C100803FF0C280004040209033C89
:105160000C05080B081EC082C083901923E4F0A32D
:10517000F07C027D1C7A3D7B18123505123D3312FE
:105180003F85123D390266F374F212245B74FE12FD
:105190002AD3E9FF8A08EBFE8C09E9703374026AAE
:1051A00070167908123733E4F50AF50B780A122ADB
:1051B0002C780A122A30805374016A60030252ED7F
:1051C00079081237337B00EEFAF9123DA50252E856
:1051D00074016F600874026F60030252EDEA6008A8
:1051E00074036A60030252881241A7E96053740392
:1051F0006508604D1233498A0A8B0B780A122A2CF3
:10520000750A01780A122A30750A00780A122A30C3
:10521000E509F50A780A122A30EEF50A780A122A08
:105220003090185712282A901E4CE0F97CC77D1A3E
:10523000901EDB12651A123D5D740A122A3F02525B
:10524000E87902123733901E4CE0F9901857122C6F
:10525000B6123D4BE9F8901867E0A2E34010E97000
:105260000D901927E004F0640470031253097403CD
:1052700065087076901928E0F9740129F0E9C39463
:10528000054067125309806274016A706074016F8F
:10529000790A702C1237337A007B04901CD3E0F922
:1052A0001234C3AA18AB19795012620E126229E89F
:1052B0001276BB7900901C8612651A123DED80446F
:1052C000123733901EB012282A7A007B2090185C87
:1052D000E0F91234B77404122A3F901E4CE0F990A2
:1052E0001857122CB6123D87E9F8E860179081B87C
:1052F00012282A7A017B0090185CE0F91234B77406
:1053000004122A3F7402027B4F901857E4F0A374F2
:10531000F8F0A374FFF0A37407F02274F612245B74
:10532000E9FFEAFE7AD1F912336D8A828B83E58236
:105330004583702A7A027B0012334FEA4B700E7A53
:10534000107B0090185CE0F912339180148A828BF4
:105350008374D1F0EFA3F0EEF912335B8003EFA377
:10536000F002556974F712245B89089004D1126623
:105370003C901E98E0F47003A3E0F470309007D1E5
:10538000E0901E98F0A3E4F080238E828F83126455
:105390009D600F8E828F83A3A312649AFAA90812CC
:1053A00037C98E828F8312621BE8FEE9FFEE4F70D1
:1053B000D9901E98E0F47003A3E0F4600A901E9860
:1053C000E0FAA9081237C9124447901827125C71F5
:1053D0001244417F010226E974F012245B890B8C90
:1053E0000C7509007508007410122CE512621B740C
:1053F00012122CE512561780471254A1F50EA3E0A5
:10540000F50FAE08EE2EFEE433FFEA2EF582EB1226
:105410006AE8650E7004A3E0650F7019AE09EE2E00
:10542000FEE433FFEC2EF582ED3FF583E50EF0A3AD
:10543000E50FF00509050AE50AC3950C40BB050810
:10544000E508C3950B5005750A0080EBA90980009B
:105450007F080226E974F412245B890B7D00740C2A
:10546000122CE512621B80010DEDC3950B502E75B9
:105470000A008002050AE50AC39C50ECED25E0FE17
:10548000E433FFEA2EF582EB3F1276891254A165D0
:10549000087004A3E0650970DB790180027900805F
:1054A00014AE0AEE2EFEE433FFE82EF582E9125C1C
:1054B0000E22122A3F7F040226E90229D474F61232
:1054C000245B1255537003A3E06D70177508657562
:1054D00009187808122A2CEEFA1239137402122ACB
:1054E0003F801A7508027509807808122A2C8A08EC
:1054F00089097808122A2C125541122A3F806A74B1
:10550000F612245B1255537003A3E06D70177508F3
:10551000727509187808122A2CEEFA1239197402D9
:10552000122A3F801A7508037509807808122A2C00
:105530008A0889097808122A2C125541122A3F80BC
:1055400028EE240E125C0BFD7C801267991239370D
:10555000740422EAFEEBFF1267AEFCE439FD9018FA
:1055600027E06C227402122A3F7F020226E974F6B9
:1055700012245B74FE122AD38A088B09851882854F
:105580001983E4F0A3F012608A1268E2FBECFA8857
:10559000828983A3A3E0F97F007E00600574FF6920
:1055A00070047E828045901827E06A7003A3E06B48
:1055B000701AAA18AB19124B0DE9FA8518828519D1
:1055C000831266E070027E83EAFF801F901AD4E0A7
:1055D00060046401700E123CBBE960047E89800B9C
:1055E0007E818007E0640270027E80125611EEF91F
:1055F000AA08AB0912391FEF601485188285198338
:105600001266E0600985188285198312711D0255A2
:1056100064851882851983E0FCA3E0FD220229D469
:1056200074F212245BEAFEEBFF75080075090012A4
:1056300067AAF50AE439F50B124447EA650A7003D4
:10564000EB650B7012124AFBE914F50879017AEF49
:105650007B18124AF58003750980126AE2F50C780E
:105660000C122A30750CEF750D18780C122A2C7854
:1056700008122A30780A122A2CE509F5087808124F
:105680002A30126509126AE5F97A057B80123925FC
:105690007407027B4F74F612245BE9FF7E008030B2
:1056A0008A828B83127691F8E4C8F9E50828E439F8
:1056B000F509EE25E0F8E433F9EC28F582ED39F54B
:1056C00083E508F0A3E509F0EA2402FA50010B0E85
:1056D000EEC39F40CB02556974E812245B74FE123E
:1056E0002AD38A108B11750F00851882851983E4DF
:1056F000F0A3F0F516F517126369351112786112EF
:105700007CC2FA8E828F83A3A3A3E0F9EAF508E4B2
:1057100039F509AA0AAB0B1244E3E96401702B12B4
:1057200074E2122A30E4F508F5097808122A2C7878
:1057300008122A30780A122A2C7508807808122A52
:1057400030125AB0122A3F025A99AA0AAB0B1244DD
:10575000E3E97041901827E0650A7004A3E0650B47
:105760006033901AD4E0640270281274E2122A3076
:10577000E4F508F5097808122A2C7808122A3078FE
:105780000A122A2C7508807808122A30125AB01290
:105790002A3F025A998E828F83A3A3A3A3E0F50B1D
:1057A000EE2405FE50010FE50B602A127BA685183A
:1057B00082851983EAF0A3EB126AFFE849601612AA
:1057C0005611EEFAEFFBA90B1238058A0C8B0DAEC1
:1057D0000CAF0D8003750B00127BBC601A127BA608
:1057E0008A168B17EA4B600FAC16AD17EEFAEFFB7B
:1057F000A90A1238058003750A009004D180508EE2
:10580000828F83A3A3A3A3A3A3A3A3E4F0A3F0EE97
:10581000FAEFFB851482851583A3A3E0F812649A3E
:10582000F912335B851282851383E0C0E0A80F7400
:10583000EF28F582E43418F583D0E0F0050FA200DC
:105840005007AA12AB131233F7851482851583E033
:10585000F514A3E0F515E51445157003025A1785F4
:10586000148285158312649D60DF851482851583FB
:10587000A3A3A3A3A3A3A3A3E0A2E050CC85148277
:10588000851583A3A3A3A31266E0851482851583DF
:10589000A3A3601E12649FFA790185148285158383
:1058A000A3A3A3A3125AA3124B608A128B13D20094
:1058B0008010125AA3A3A3A3A3E0F512A3E0F5134B
:1058C000C200E5124513700302583E85128285130B
:1058D00083A3E065087004A3E06509600F74FF65A9
:1058E00008700474FF6509600302583E85128285C2
:1058F0001383A3A3A3A3A3A3A312282E8512828597
:105900001383A3A3A3A3A3A3E0FC7402122CE512A8
:10591000651AA90B1237DB7402122A3FE970388529
:105920001282851383A3A3A3A3A3A3A3A3A3A31258
:10593000282E851282851383A3A3A3A3A3A3A3A3C5
:10594000A3E0FCAA16AB17A90A1237DB7402122ACD
:105950003FE9700302583EE50A250BC333240AFAD7
:105960007B0012334F8A0C8B0DAE0CAF0DEA4F70DB
:10597000030258248A828B8374D2126CD88A828B59
:1059800083A3A3127062A3A3A3E50B127CD3E50B40
:105990006033EA240AFAE43FFB8E828F83125C6C48
:1059A000851882851983E0F50CA3E0F50D750E00CE
:1059B000780C122A28AC0BEC2CFCE433FD127CBCD6
:1059C000122A3F800D8A828B83A3A3A3A3A3E4F0B2
:1059D000A3F0E50A70030257FFA80BE828F8E433A8
:1059E000F9EE28F8EF39F9E8240AFAE439FB8E8257
:1059F0008F83A3A3A3125C6C85160C85170D750EFF
:105A000000780C122A28AC0AEC2CFCE433FD127C42
:105A1000BC122A3F02580FE50F60251274E2122AC9
:105A2000307508EF7509187808122A2CE50FF5086B
:105A30007808122A3090182712282E750800802D19
:105A4000E510240BF582E43511F583E0702A127419
:105A5000E2122A307508EF7509187808122A2C7599
:105A600008007808122A3090182712282E78081279
:105A70002A30125AB0122A3F85188285198312667D
:105A8000E0600985188285198312711DE516451796
:105A90006007AA16AB171233F77402122A3F7F1061
:105AA0000226E9125AA722E0F8A3E0F583888222B1
:105AB000E5102402FCE43511FDE510126494351163
:105AC000F583E0F97A067B8012392574072274F495
:105AD00012245B74F4122AD38A088B09ECFEEDFFC2
:105AE000740B122CE57403F0122A95123505126618
:105AF0002E7403122A951234FFE9600A125C0260C8
:105B000010E06401600B8518828519837484025B40
:105B1000C98E828F83A3A3A3A3A3A3A3A3E060132F
:105B2000F46010125C027016EE2414126AE5600331
:105B3000F4700B8518828519837482025BC9127810
:105B400055E064217002A3E07055851882851983A1
:105B5000748C126238E0F50A780A122A30125C134B
:105B60001240937401122A3FE9705F8518828519EB
:105B700083E4F012370F125C02704F7401122A9DF9
:105B8000EE240BFAE43FFB1240B1E9703D7D007C4E
:105B9000007900EE240BFAE43FFB1238DD802BEE97
:105BA0002414126AE5F50A780A122A30125C1312DC
:105BB00040997401122A3FE985188285198370077C
:105BC000E4F012370F80037488F0127468F50A78D5
:105BD0000A122A307401122A8D880A890B780A1257
:105BE0002A2CE508240CF582E43509126230448041
:105BF000F50B780A122A2C126610122A3F740C0236
:105C000054B2EE2413125C0B640322F582E43FF5D8
:105C100083E022EE240BFCE43FFD8E828F83A3A35E
:105C2000A3A3A3A3A3A3A312749F8E828F83A3A372
:105C3000A3A3A3A3A3A3E0F922C082C08374F31299
:105C40002AD3851882851983E4F004122CE5125CAE
:105C5000717403122CE5AA82AB83123C43AA18ABE1
:105C600019123C7F740D122A3F0266F3A3A3A3A36B
:105C7000A3EAF0A3EBF02274F612245BEAFEEBFF3A
:105C8000EA2413126AE5F8A3E0125CBEF890186DDE
:105C9000E058F508A3E059F509E5084509601C78C6
:105CA00008122A2C90182712282E126AE2FD7C0076
:105CB0001267951239317404122A3F02556988829D
:105CC000F583125CC622E0FAA3E0F9EA2274EA1234
:105CD000245B74DB122AD38A148B1575120075139A
:105CE00000750A001263693515F58312649FF50E7D
:105CF000AC18AD197A007B00799C123DBD901AD486
:105D0000E06004640170147A047900123CA9EAF599
:105D10000A851882851983E02A80088518828519EA
:105D2000837401F0E0F8E50EC3984003025F1FE0C2
:105D3000C3950EF509C394044003750903E509757D
:105D4000F01AA4FAABF01233F18A128B13EA4B70FB
:105D500003025F22750B00AE12AF13850E08025DC1
:105D6000E77C087D0079FFEE240AFAE43FFB12335A
:105D700037850C82850D83A3A3A3A3E0702D850C2A
:105D800082850D831266E07009127666125FC6E4A2
:105D90008010125FA3F0901C99E014C0E0125F8A9B
:105DA000D0E0F0125F8E125FD58032901C99E00433
:105DB000C0E0125F8AD0E0126002C39403EE400399
:105DC000025E6812775F740212600264017003025F
:105DD0005E75EE2415125FA6125FB77401F0EE2413
:105DE0001AFE50010F050BE50BC395094003025E37
:105DF000D4E508C3950A4003025E7EAA087B001220
:105E00003CEB8A0C8B0D0508901C86125FE8850C14
:105E100082850D83125FAFF0A3E9125FDA125F8A09
:105E200074FF126007A3A3A3A3A3A3E0C0E0125FC3
:105E300078D0E0F07401122CE5E4F0850C82850D39
:105E40008312621B7402122CE5E81276BB740112F5
:105E50002A95123C6DE964016003025D61740412CD
:105E60002CE5125F94025D71125FA412600264035C
:105E70006003025DD2EE2415127669025DD8E50A50
:105E8000C3950E40057508008051E50EC3950AF5CF
:105E9000088048EE2415127669125FD5F0901C999F
:105EA000E014C0E0125F8AD0E0125FDA741D122C99
:105EB000E5E0C0E0125F78D0E0F0125F821266DEAB
:105EC00070051276668003125FA3F0EE241AFE506E
:105ED000010F050BE50BC395095047740E122A9D5F
:105EE000AA087B007987123DBD05087418122CE5BD
:105EF000125FE87410122CE5125F94740E122CE5F8
:105F0000125FAF1276BB901AD4E060046401708314
:105F1000125F8E125FB77403125FC674FF808A75BA
:105F20000900750A00780A122A307812122A2C7891
:105F300009122A30E50EF5097809122A3074051283
:105F40002CE5E0FD7C00E51412648B3515FBE514AF
:105F50001264903515F583E0F912396D7405122A33
:105F60003FE51245136007AA12AB131233F77425ED
:105F7000122A3F7F0E0226E9EE2419F582E43FF54E
:105F80008322EE2412F582E43F22125FCB221276A6
:105F9000E6740222AC82AD83EE240AFAE43FFB12DF
:105FA000350522EE2414F582E43FF58374012212B4
:105FB00076C81276DCE822125FBB22F0EE2416F5DA
:105FC00082E43FF58322F0125FCB22EE2418F582A3
:105FD000E43FF58322125FBBE422F0EE2417F58242
:105FE000E43FF5837402F0221276C88E828F83E834
:105FF000F0A3E9F07C9A7D1CEE12648B3FFB123516
:106000000522126007E022F0850C82850D83A3A390
:10601000A3A32274F612245B74F9122AD3126086A9
:10602000127D85851882851983122CCE8E828F83EE
:10603000A3A3A3A3E0C0E07404122CE5D0E0127A7D
:10604000FAF87405122CE57401F07406122CE5744C
:1060500001F0901831F090183A0412777BFAA3E01F
:10606000FB901832125C71E890183BF0127B1DE037
:10607000901830F0AA18AB19123D51E96003123D97
:106080005774070255668A088B09127A93350922DC
:1060900074F212245B74FF122AD37508007E007F0D
:1060A0000012435D8A0A8B0B1262028005050812FA
:1060B0006218E84970F7901AD4E060076401600341
:1060C0000261781262028003126218E849602D882A
:1060D00082898312651A901C86E06A7003A3E06BC4
:1060E000600A12621F12651AEA4B70DC888289838B
:1060F000126229E0687003A3E069607C7A167B0075
:10610000127A766073901C8612621B8A828B83E8F7
:106110001276BB901C7B126D6FF01244CBE98E821D
:106120008F83A3A3A3A3A3F0901EB6E08E828F83D8
:10613000A3A3A3A3A3A3F07C9A7D1CEE240B125F60
:106140009BAA18AB19794112620EE06008901827DB
:1061500012621B800478FE79FF8E828F83A3A3A333
:10616000A3A3A3A3E8F0A3E9126238E50AF0A3E52C
:106170000BF08E0A8F0B050890183BE0F8E508C37A
:1061800098500479008029E508C398F9C394064023
:106190000279057800800FE50A2414F582E4350BB6
:1061A000126230F50B0890183BE0FAE8C39A40E71A
:1061B0007509007809122A30780A122A2CE9F509A3
:1061C0007809122A3090183BE0F5097809122A3034
:1061D000AD087C007A327B18901830E0F9123967EC
:1061E0007405122A3F901AD4E060046401700BEE2B
:1061F0004F6007EEFAEFFB1233F7123D57740102BE
:106200007B4F12435D8A0C8B0DA80CA90D22123B0B
:10621000478518828519832212621F1276C822E8E8
:106220002414F582E439F583221276C8901C862264
:10623000F583E0F50AA3E022F0EE1277632274F012
:1062400012245B74FF122AD38A0A8B0B7E008E0EF7
:106250008E0F126369350BF58312649FFFAC18AD86
:10626000197A007B00799D123DBD851882851983BE
:10627000E0F8EFC3984003026313E0C39FFEC394AA
:106280000B40027E0AEE75F007A4FAABF0126483AD
:106290008A0E8B0FEA4B6079750C00801A85088294
:1062A000850983A3A3A3A3A37403F0E5082407F53A
:1062B0000850020509050CE50CC39E5056AC08AD0C
:1062C00009E50C2FFAE43400FB798B123DBD8508FB
:1062D00082850983A3A3A3A3A3E014600814601319
:1062E00014601F80B8850882850983A3A3A3A3A394
:1062F000E480B7850882850983A3A3A3A3A37401BF
:1063000080A8850882850983A3A3A3A3A374028020
:10631000997E007508007808122A30780E122A2C0F
:10632000EEF5087808122A30EFF5087808122A30BE
:106330007405122CE5E0FD7C00E50A12648B350B38
:10634000FBE50A126490350BF583E0F9123973749A
:1063500005122A3FE50E450F6007AA0EAB0F123358
:10636000F77401122A3F025450EA127A942274EE12
:1063700012245B74FE122AD38A0C8B0D75100075E3
:106380001100126369350DF58312649FF50AAC188C
:10639000AD197A007B0079A312409F851882851978
:1063A0008312621BC3E50A98E49950208518828500
:1063B0001983A80AE0C398FEA3E09400FFC3EE94FB
:1063C00004EF940040617E037F00805F7E00750BC8
:1063D00000EEF97508007808122A307810122A2C7D
:1063E000E9F5087808122A30E50AF5087808122A33
:1063F000307405122CE5E0FDAC0BE50C12648B3516
:106400000DFBE50C126490350DF583E0F912397936
:106410007405122A3FE51045116007AA10AB11124E
:1064200033F77402027B80EE4F60A3EEFAEFFBEAD3
:1064300075F015A4FAA8F075F015EBA42812648283
:106440008A108B11EA4B6032750B00750E00C3E5A4
:106450000E9EE49F40030263D1AC08AD09A80AE593
:106460000E28FAE43400FB79A212409FE5082415B7
:10647000F50850020509050E80D4750BB5790002A8
:1064800063D3FB1233F18A088B09222402FAE42237
:1064900012649422240FF582E422125AA9A3A312B3
:1064A0005AA7E02274F612245B74FF122AD3EAFE84
:1064B000EBFF1266CC12651A8A82F583A3A3A3A30D
:1064C000A3A3A3A3E0F9123D75E98518828519837A
:1064D000F07508007808122A307401122A8D880895
:1064E00089097808122A2C750835750980780812F0
:1064F0002A2C1264FD122A3F74010255667901129A
:106500006509FAE43F12662722EE2402FCE43FFD0F
:10651000EE240F2285188285198312749F2274F449
:1065200012245B74FA122AD312608612663AEEFACB
:10653000EFFB123C49E9600F12662EEEFAEFFB12F8
:1065400034FFE964017013901AD4E0700302660B03
:106550007401122CE5E4F0A380097401122CE5EE1D
:10656000F0A3EFF0901AD4E06402701785088285DA
:106570000983A3A3126AF8E0687003A3E0696003CB
:1065800002660B8E828F83A3A3A3A3A3A3A3A3E07E
:10659000FEA2E650087403122CE57401F0EEA2E7A7
:1065A00050087404122CE57401F07405122CE5E413
:1065B0001268E9F0F50A780A122A307401122A8D5D
:1065C000880A890B780A122A2C750A34750B807890
:1065D0000A122A2C126610122A3F90816C122CB6D5
:1065E0001244657A007B001244717A007B001244E9
:1065F0006B7401122A95123DABEEA2E7400D7401B7
:10660000122CE51266E07003124A5974060254B265
:106610007901E5082402FCE43509FDE508240FFAB8
:10662000E4350912662722FB1238D1740522124480
:10663000418A0A8B0BAC0AAD0B22F583127A04FF58
:106640002274F612245B74FF122AD3EAFEEBFF9049
:106650001AD4E07011901EBBE0700B8A828B83A36A
:10666000A31266E070631266CC12649FF50874FF93
:10667000650870037508FEA908123D63E985188254
:10668000851983F01241A7E96005A908123A3F90E5
:106690001AD4E07005A908123A3FEE240B126AE5FD
:1066A00070277508007808122A307401122A8D8824
:1066B0000889097808122A2C750836750980780827
:1066C000122A2C1264FD122A3F0264F8EA1266D1E3
:1066D000222413F582E43FF58322F582E438F58322
:1066E0001276C8E84922C082C083901AD4E07003B1
:1066F000123A45D083D0820229D474F412245B74F8
:10670000EF122AD3EAFEEBFF1267AAF508E439F587
:1067100009901827E06A7003A3E0697052A818A9CD
:1067200019880A890B780A122A2C750A11750B0030
